{
  "contractName": "Pong",
  "abi": [
    {
      "constant": false,
      "inputs": [
        {
          "name": "_pongval",
          "type": "int256"
        }
      ],
      "name": "setPongval",
      "outputs": [],
      "payable": false,
      "stateMutability": "nonpayable",
      "type": "function"
    },
    {
      "constant": true,
      "inputs": [],
      "name": "getAddress",
      "outputs": [
        {
          "name": "",
          "type": "address"
        }
      ],
      "payable": false,
      "stateMutability": "view",
      "type": "function"
    },
    {
      "constant": false,
      "inputs": [],
      "name": "getPongvalConstant",
      "outputs": [
        {
          "name": "",
          "type": "int256"
        }
      ],
      "payable": false,
      "stateMutability": "nonpayable",
      "type": "function"
    },
    {
      "constant": false,
      "inputs": [],
      "name": "kill",
      "outputs": [],
      "payable": false,
      "stateMutability": "nonpayable",
      "type": "function"
    },
    {
      "constant": true,
      "inputs": [],
      "name": "pongval",
      "outputs": [
        {
          "name": "",
          "type": "int256"
        }
      ],
      "payable": false,
      "stateMutability": "view",
      "type": "function"
    },
    {
      "constant": true,
      "inputs": [],
      "name": "getPongvalTxRetrievalAttempted",
      "outputs": [
        {
          "name": "",
          "type": "int256"
        }
      ],
      "payable": false,
      "stateMutability": "view",
      "type": "function"
    },
    {
      "inputs": [
        {
          "name": "_pongval",
          "type": "int256"
        }
      ],
      "payable": false,
      "stateMutability": "nonpayable",
      "type": "function",
      "constant": false,
      "name": "getPongvalTransactional",
      "outputs": [
        {
          "name": "",
          "type": "int256"
        }
      ]
    },
    {
      "inputs": [
        {
          "name": "_pongval",
          "type": "int256"
        }
      ],
      "payable": false,
      "stateMutability": "nonpayable",
      "type": "constructor"
    }
  ],
  "bytecode": "0x60606040526000600255341561001457600080fd5b60405160208061033b83398101604052808051906020019091905050336000806101000a81548173ffffffffffffffffffffffffffffffffffffffff021916908373ffffffffffffffffffffffffffffffffffffffff16021790555080600181905550506102b4806100876000396000f300606060405260043610610083576000357c0100000000000000000000000000000000000000000000000000000000900463ffffffff168063302693c51461008857806338cc4831146100ab57806340193d171461010057806341c0e1b514610129578063809e99241461013e578063a396541e14610167578063fb5d572914610190575b600080fd5b341561009357600080fd5b6100a960048080359060200190919050506101b9565b005b34156100b657600080fd5b6100be6101c3565b604051808273ffffffffffffffffffffffffffffffffffffffff1673ffffffffffffffffffffffffffffffffffffffff16815260200191505060405180910390f35b341561010b57600080fd5b6101136101cb565b6040518082815260200191505060405180910390f35b341561013457600080fd5b61013c6101d5565b005b341561014957600080fd5b610151610266565b6040518082815260200191505060405180910390f35b341561017257600080fd5b61017a61026c565b6040518082815260200191505060405180910390f35b341561019b57600080fd5b6101a3610276565b6040518082815260200191505060405180910390f35b8060018190555050565b600030905090565b6000600154905090565b6000809054906101000a900473ffffffffffffffffffffffffffffffffffffffff1673ffffffffffffffffffffffffffffffffffffffff163373ffffffffffffffffffffffffffffffffffffffff161415610264576000809054906101000a900473ffffffffffffffffffffffffffffffffffffffff1673ffffffffffffffffffffffffffffffffffffffff16ff5b565b60015481565b6000600254905090565b600060016002819055506001549050905600a165627a7a7230582074bd372fa1800068c3fa6228e100ee124a24b96c9f4c84ed2191dcf258f9cca80029",
  "source": "// Supposedly, contracts can get non-constant return values from other contracts. (Whereas you can't from web3/geth.)\n// These two contracts are meant to test this. Like so:\n\n// 1. Deploy Pong with a pongval.\n// 2. Deploy Ping, giving it the address of Pong.\n// 3. Call Ping.getPongvalRemote() using a sendTransaction...\n// 4. ... which retreives the value of pongval from Pong.\n// 5. If successful Ping.getPongval() should return the value from step 1.\n\n// UPDATE: Pong doesn't need a copy of PongvalRetriever.\n//contract PongvalRetriever {\n// \tint pongval_tx_retrieval_attempted = 0;\n//\tfunction getPongvalTransactional() public returns (int){\t// tells Ping how to interact with Pong.\n//\t\tpongval_tx_retrieval_attempted = -1;\n//\t\treturn pongval_tx_retrieval_attempted;\n//\t}\n//}\npragma solidity ^0.4.11;\ncontract Pong {\n\n    address creator;\n    int public pongval;\n    int pongval_tx_retrieval_attempted = 0;\n\n\t/*********\n \t Step 1: Deploy Pong\n \t *********/\n    function Pong(int _pongval)\n    {\n        creator = msg.sender;\n        pongval = _pongval;\n    }\n\n\t/*********\n\t Step 4. Transactionally return pongval, overriding PongvalRetriever\n\t *********/\n\tfunction getPongvalTransactional() public returns (int)\n    {\n    \tpongval_tx_retrieval_attempted = 1;\n    \treturn pongval;\n    }\n\n// ----------------------------------------------------------------------------------------------------------------------------------------\n\n    /*********\n\t pongval getter/setter, just in case.\n\t *********/\n\tfunction getPongvalConstant() public returns (int)\n    {\n    \treturn pongval;\n    }\n\n\tfunction setPongval(int _pongval)\n\t{\n\t\tpongval = _pongval;\n\t}\n\n\tfunction getPongvalTxRetrievalAttempted() constant returns (int)\n\t{\n\t\treturn pongval_tx_retrieval_attempted;\n\t}\n\n\t/****\n\t For double-checking this contract's address\n\t ****/\n\tfunction getAddress() constant returns (address)\n\t{\n\t\treturn this;\n\t}\n\n    /**********\n     Standard kill() function to recover funds\n     **********/\n\n    function kill()\n    {\n        if (msg.sender == creator)\n            suicide(creator);  // kills this contract and sends remaining funds back to creator\n    }\n}\n\n",
  "sourcePath": "/home/pawe/Music/ethereum/eth-observable/example/contracts/Pong.sol",
  "compiler": {
    "name": "solc",
    "version": "0.4.18+commit.9cf6e910.Emscripten.clang"
  },
  "schemaVersion": "1.0.1",
  "updatedAt": "2017-12-02T11:56:22.270Z"
}